{
  "_format": "hh-sol-artifact-1",
  "contractName": "Todo",
  "sourceName": "contracts/todo.sol",
  "abi": [
    {
      "anonymous": false,
      "inputs": [
        {
          "indexed": true,
          "internalType": "address",
          "name": "user",
          "type": "address"
        },
        {
          "indexed": false,
          "internalType": "uint256",
          "name": "id",
          "type": "uint256"
        },
        {
          "indexed": false,
          "internalType": "string",
          "name": "content",
          "type": "string"
        }
      ],
      "name": "TaskCreated",
      "type": "event"
    },
    {
      "anonymous": false,
      "inputs": [
        {
          "indexed": true,
          "internalType": "address",
          "name": "user",
          "type": "address"
        },
        {
          "indexed": false,
          "internalType": "uint256",
          "name": "id",
          "type": "uint256"
        }
      ],
      "name": "TaskDeleted",
      "type": "event"
    },
    {
      "anonymous": false,
      "inputs": [
        {
          "indexed": true,
          "internalType": "address",
          "name": "user",
          "type": "address"
        },
        {
          "indexed": false,
          "internalType": "uint256",
          "name": "id",
          "type": "uint256"
        },
        {
          "indexed": false,
          "internalType": "string",
          "name": "newContent",
          "type": "string"
        }
      ],
      "name": "TaskEdited",
      "type": "event"
    },
    {
      "anonymous": false,
      "inputs": [
        {
          "indexed": true,
          "internalType": "address",
          "name": "user",
          "type": "address"
        },
        {
          "indexed": false,
          "internalType": "uint256",
          "name": "id",
          "type": "uint256"
        },
        {
          "indexed": false,
          "internalType": "bool",
          "name": "completed",
          "type": "bool"
        }
      ],
      "name": "TaskToggled",
      "type": "event"
    },
    {
      "inputs": [
        {
          "internalType": "string",
          "name": "_content",
          "type": "string"
        }
      ],
      "name": "addTask",
      "outputs": [],
      "stateMutability": "nonpayable",
      "type": "function"
    },
    {
      "inputs": [
        {
          "internalType": "uint256",
          "name": "_id",
          "type": "uint256"
        }
      ],
      "name": "deleteTask",
      "outputs": [],
      "stateMutability": "nonpayable",
      "type": "function"
    },
    {
      "inputs": [
        {
          "internalType": "uint256",
          "name": "_id",
          "type": "uint256"
        },
        {
          "internalType": "string",
          "name": "_content",
          "type": "string"
        }
      ],
      "name": "editTask",
      "outputs": [],
      "stateMutability": "nonpayable",
      "type": "function"
    },
    {
      "inputs": [],
      "name": "getTasks",
      "outputs": [
        {
          "components": [
            {
              "internalType": "uint256",
              "name": "id",
              "type": "uint256"
            },
            {
              "internalType": "string",
              "name": "content",
              "type": "string"
            },
            {
              "internalType": "bool",
              "name": "completed",
              "type": "bool"
            },
            {
              "internalType": "bool",
              "name": "deleted",
              "type": "bool"
            },
            {
              "internalType": "uint256",
              "name": "createdAt",
              "type": "uint256"
            }
          ],
          "internalType": "struct Todo.Task[]",
          "name": "",
          "type": "tuple[]"
        }
      ],
      "stateMutability": "view",
      "type": "function"
    },
    {
      "inputs": [
        {
          "internalType": "uint256",
          "name": "_id",
          "type": "uint256"
        }
      ],
      "name": "toggleTask",
      "outputs": [],
      "stateMutability": "nonpayable",
      "type": "function"
    }
  ],
  "bytecode": "0x608060405234801561001057600080fd5b50611452806100206000396000f3fe608060405234801561001057600080fd5b50600436106100575760003560e01c806304a87e381461005c578063560f31921461007a578063613137a41461009657806367238562146100b2578063cb7bd995146100ce575b600080fd5b6100646100ea565b6040516100719190610bdd565b60405180910390f35b610094600480360381019061008f9190610c35565b610261565b005b6100b060048036038101906100ab9190610c35565b610407565b005b6100cc60048036038101906100c79190610cc7565b6105d1565b005b6100e860048036038101906100e39190610d14565b6107f8565b005b60606000803373ffffffffffffffffffffffffffffffffffffffff1673ffffffffffffffffffffffffffffffffffffffff168152602001908152602001600020805480602002602001604051908101604052809291908181526020016000905b8282101561025857838290600052602060002090600402016040518060a00160405290816000820154815260200160018201805461018790610da3565b80601f01602080910402602001604051908101604052809291908181526020018280546101b390610da3565b80156102005780601f106101d557610100808354040283529160200191610200565b820191906000526020600020905b8154815290600101906020018083116101e357829003601f168201915b505050505081526020016002820160009054906101000a900460ff161515151581526020016002820160019054906101000a900460ff161515151581526020016003820154815250508152602001906001019061014a565b50505050905090565b6000803373ffffffffffffffffffffffffffffffffffffffff1673ffffffffffffffffffffffffffffffffffffffff1681526020019081526020016000208054905081106102e4576040517f08c379a00000000000000000000000000000000000000000000000000000000081526004016102db90610e31565b60405180910390fd5b60008060003373ffffffffffffffffffffffffffffffffffffffff1673ffffffffffffffffffffffffffffffffffffffff168152602001908152602001600020828154811061033657610335610e51565b5b906000526020600020906004020190508060020160019054906101000a900460ff1615610398576040517f08c379a000000000000000000000000000000000000000000000000000000000815260040161038f90610ecc565b60405180910390fd5b60018160020160016101000a81548160ff0219169083151502179055503373ffffffffffffffffffffffffffffffffffffffff167fd1bc87501afcaa22b7f6481dac99ed45fbe02321873ca9b55c1f41b9d78b8fb3836040516103fb9190610efb565b60405180910390a25050565b6000803373ffffffffffffffffffffffffffffffffffffffff1673ffffffffffffffffffffffffffffffffffffffff16815260200190815260200160002080549050811061048a576040517f08c379a000000000000000000000000000000000000000000000000000000000815260040161048190610e31565b60405180910390fd5b60008060003373ffffffffffffffffffffffffffffffffffffffff1673ffffffffffffffffffffffffffffffffffffffff16815260200190815260200160002082815481106104dc576104db610e51565b5b906000526020600020906004020190508060020160019054906101000a900460ff161561053e576040517f08c379a000000000000000000000000000000000000000000000000000000000815260040161053590610f62565b60405180910390fd5b8060020160009054906101000a900460ff16158160020160006101000a81548160ff0219169083151502179055503373ffffffffffffffffffffffffffffffffffffffff167fab7f8b4ae853164b2eec49792f0a9b5ce9ee4568a8d67c9aa3b27e949f31d183838360020160009054906101000a900460ff166040516105c5929190610f91565b60405180910390a25050565b60008282905011610617576040517f08c379a000000000000000000000000000000000000000000000000000000000815260040161060e90611006565b60405180910390fd5b60008060003373ffffffffffffffffffffffffffffffffffffffff1673ffffffffffffffffffffffffffffffffffffffff1681526020019081526020016000208054905090506000803373ffffffffffffffffffffffffffffffffffffffff1673ffffffffffffffffffffffffffffffffffffffff1681526020019081526020016000206040518060a0016040528083815260200185858080601f016020809104026020016040519081016040528093929190818152602001838380828437600081840152601f19601f8201169050808301925050505050505081526020016000151581526020016000151581526020014281525090806001815401808255809150506001900390600052602060002090600402016000909190919091506000820151816000015560208201518160010190816107549190611201565b5060408201518160020160006101000a81548160ff02191690831515021790555060608201518160020160016101000a81548160ff0219169083151502179055506080820151816003015550503373ffffffffffffffffffffffffffffffffffffffff167fa211005f5319202ee7ab6815fc340564635fb1eee9bc5a55aa10048c5b471dc48285856040516107eb9392919061130f565b60405180910390a2505050565b6000803373ffffffffffffffffffffffffffffffffffffffff1673ffffffffffffffffffffffffffffffffffffffff16815260200190815260200160002080549050831061087b576040517f08c379a000000000000000000000000000000000000000000000000000000000815260040161087290610e31565b60405180910390fd5b600082829050116108c1576040517f08c379a00000000000000000000000000000000000000000000000000000000081526004016108b890611006565b60405180910390fd5b60008060003373ffffffffffffffffffffffffffffffffffffffff1673ffffffffffffffffffffffffffffffffffffffff168152602001908152602001600020848154811061091357610912610e51565b5b906000526020600020906004020190508060020160019054906101000a900460ff1615610975576040517f08c379a000000000000000000000000000000000000000000000000000000000815260040161096c90610f62565b60405180910390fd5b828282600101918261098892919061134c565b503373ffffffffffffffffffffffffffffffffffffffff167fcf6ab547fd0f555692bf486b8c3ab7f19c7541f368bfce3e2ba01c6046a95dbb8585856040516109d39392919061130f565b60405180910390a250505050565b600081519050919050565b600082825260208201905092915050565b6000819050602082019050919050565b6000819050919050565b610a2081610a0d565b82525050565b600081519050919050565b600082825260208201905092915050565b60005b83811015610a60578082015181840152602081019050610a45565b60008484015250505050565b6000601f19601f8301169050919050565b6000610a8882610a26565b610a928185610a31565b9350610aa2818560208601610a42565b610aab81610a6c565b840191505092915050565b60008115159050919050565b610acb81610ab6565b82525050565b600060a083016000830151610ae96000860182610a17565b5060208301518482036020860152610b018282610a7d565b9150506040830151610b166040860182610ac2565b506060830151610b296060860182610ac2565b506080830151610b3c6080860182610a17565b508091505092915050565b6000610b538383610ad1565b905092915050565b6000602082019050919050565b6000610b73826109e1565b610b7d81856109ec565b935083602082028501610b8f856109fd565b8060005b85811015610bcb5784840389528151610bac8582610b47565b9450610bb783610b5b565b925060208a01995050600181019050610b93565b50829750879550505050505092915050565b60006020820190508181036000830152610bf78184610b68565b905092915050565b600080fd5b600080fd5b610c1281610a0d565b8114610c1d57600080fd5b50565b600081359050610c2f81610c09565b92915050565b600060208284031215610c4b57610c4a610bff565b5b6000610c5984828501610c20565b91505092915050565b600080fd5b600080fd5b600080fd5b60008083601f840112610c8757610c86610c62565b5b8235905067ffffffffffffffff811115610ca457610ca3610c67565b5b602083019150836001820283011115610cc057610cbf610c6c565b5b9250929050565b60008060208385031215610cde57610cdd610bff565b5b600083013567ffffffffffffffff811115610cfc57610cfb610c04565b5b610d0885828601610c71565b92509250509250929050565b600080600060408486031215610d2d57610d2c610bff565b5b6000610d3b86828701610c20565b935050602084013567ffffffffffffffff811115610d5c57610d5b610c04565b5b610d6886828701610c71565b92509250509250925092565b7f4e487b7100000000000000000000000000000000000000000000000000000000600052602260045260246000fd5b60006002820490506001821680610dbb57607f821691505b602082108103610dce57610dcd610d74565b5b50919050565b600082825260208201905092915050565b7f496e76616c696420494400000000000000000000000000000000000000000000600082015250565b6000610e1b600a83610dd4565b9150610e2682610de5565b602082019050919050565b60006020820190508181036000830152610e4a81610e0e565b9050919050565b7f4e487b7100000000000000000000000000000000000000000000000000000000600052603260045260246000fd5b7f416c72656164792064656c657465640000000000000000000000000000000000600082015250565b6000610eb6600f83610dd4565b9150610ec182610e80565b602082019050919050565b60006020820190508181036000830152610ee581610ea9565b9050919050565b610ef581610a0d565b82525050565b6000602082019050610f106000830184610eec565b92915050565b7f5461736b2064656c657465640000000000000000000000000000000000000000600082015250565b6000610f4c600c83610dd4565b9150610f5782610f16565b602082019050919050565b60006020820190508181036000830152610f7b81610f3f565b9050919050565b610f8b81610ab6565b82525050565b6000604082019050610fa66000830185610eec565b610fb36020830184610f82565b9392505050565b7f456d707479207461736b00000000000000000000000000000000000000000000600082015250565b6000610ff0600a83610dd4565b9150610ffb82610fba565b602082019050919050565b6000602082019050818103600083015261101f81610fe3565b9050919050565b7f4e487b7100000000000000000000000000000000000000000000000000000000600052604160045260246000fd5b60008190508160005260206000209050919050565b60006020601f8301049050919050565b600082821b905092915050565b6000600883026110b77fffffffffffffffffffffffffffffffffffffffffffffffffffffffffffffffff8261107a565b6110c1868361107a565b95508019841693508086168417925050509392505050565b6000819050919050565b60006110fe6110f96110f484610a0d565b6110d9565b610a0d565b9050919050565b6000819050919050565b611118836110e3565b61112c61112482611105565b848454611087565b825550505050565b600090565b611141611134565b61114c81848461110f565b505050565b5b8181101561117057611165600082611139565b600181019050611152565b5050565b601f8211156111b55761118681611055565b61118f8461106a565b8101602085101561119e578190505b6111b26111aa8561106a565b830182611151565b50505b505050565b600082821c905092915050565b60006111d8600019846008026111ba565b1980831691505092915050565b60006111f183836111c7565b9150826002028217905092915050565b61120a82610a26565b67ffffffffffffffff81111561122357611222611026565b5b61122d8254610da3565b611238828285611174565b600060209050601f83116001811461126b5760008415611259578287015190505b61126385826111e5565b8655506112cb565b601f19841661127986611055565b60005b828110156112a15784890151825560018201915060208501945060208101905061127c565b868310156112be57848901516112ba601f8916826111c7565b8355505b6001600288020188555050505b505050505050565b82818337600083830152505050565b60006112ee8385610dd4565b93506112fb8385846112d3565b61130483610a6c565b840190509392505050565b60006040820190506113246000830186610eec565b81810360208301526113378184866112e2565b9050949350505050565b600082905092915050565b6113568383611341565b67ffffffffffffffff81111561136f5761136e611026565b5b6113798254610da3565b611384828285611174565b6000601f8311600181146113b357600084156113a1578287013590505b6113ab85826111e5565b865550611413565b601f1984166113c186611055565b60005b828110156113e9578489013582556001820191506020850194506020810190506113c4565b868310156114065784890135611402601f8916826111c7565b8355505b6001600288020188555050505b5050505050505056fea26469706673582212209053d554cf50ec91daec306df804ec76b69fbd7a75bd80b3c2d8868fc2134e2664736f6c63430008140033",
  "linkReferences": {},
  "deployedLinkReferences": {}
}