{
  "_format": "hh-sol-artifact-1",
  "contractName": "Todo",
  "sourceName": "contracts/todo.sol",
  "abi": [
    {
      "anonymous": false,
      "inputs": [
        {
          "indexed": true,
          "internalType": "address",
          "name": "user",
          "type": "address"
        },
        {
          "indexed": false,
          "internalType": "uint256",
          "name": "id",
          "type": "uint256"
        },
        {
          "indexed": false,
          "internalType": "string",
          "name": "content",
          "type": "string"
        }
      ],
      "name": "TaskCreated",
      "type": "event"
    },
    {
      "anonymous": false,
      "inputs": [
        {
          "indexed": true,
          "internalType": "address",
          "name": "user",
          "type": "address"
        },
        {
          "indexed": false,
          "internalType": "uint256",
          "name": "id",
          "type": "uint256"
        },
        {
          "indexed": false,
          "internalType": "bool",
          "name": "completed",
          "type": "bool"
        }
      ],
      "name": "TaskToggled",
      "type": "event"
    },
    {
      "inputs": [
        {
          "internalType": "string",
          "name": "_content",
          "type": "string"
        }
      ],
      "name": "addTask",
      "outputs": [],
      "stateMutability": "nonpayable",
      "type": "function"
    },
    {
      "inputs": [],
      "name": "getTasks",
      "outputs": [
        {
          "components": [
            {
              "internalType": "uint256",
              "name": "id",
              "type": "uint256"
            },
            {
              "internalType": "string",
              "name": "content",
              "type": "string"
            },
            {
              "internalType": "bool",
              "name": "completed",
              "type": "bool"
            },
            {
              "internalType": "uint256",
              "name": "createdAt",
              "type": "uint256"
            }
          ],
          "internalType": "struct Todo.Task[]",
          "name": "",
          "type": "tuple[]"
        }
      ],
      "stateMutability": "view",
      "type": "function"
    },
    {
      "inputs": [
        {
          "internalType": "uint256",
          "name": "_id",
          "type": "uint256"
        }
      ],
      "name": "toggleTask",
      "outputs": [],
      "stateMutability": "nonpayable",
      "type": "function"
    }
  ],
  "bytecode": "0x608060405234801561001057600080fd5b50610d9e806100206000396000f3fe608060405234801561001057600080fd5b50600436106100415760003560e01c806304a87e3814610046578063613137a4146100645780636723856214610080575b600080fd5b61004e61009c565b60405161005b9190610757565b60405180910390f35b61007e600480360381019061007991906107af565b6101f8565b005b61009a60048036038101906100959190610841565b610370565b005b60606000803373ffffffffffffffffffffffffffffffffffffffff1673ffffffffffffffffffffffffffffffffffffffff168152602001908152602001600020805480602002602001604051908101604052809291908181526020016000905b828210156101ef578382906000526020600020906004020160405180608001604052908160008201548152602001600182018054610139906108bd565b80601f0160208091040260200160405190810160405280929190818152602001828054610165906108bd565b80156101b25780601f10610187576101008083540402835291602001916101b2565b820191906000526020600020905b81548152906001019060200180831161019557829003601f168201915b505050505081526020016002820160009054906101000a900460ff16151515158152602001600382015481525050815260200190600101906100fc565b50505050905090565b6000803373ffffffffffffffffffffffffffffffffffffffff1673ffffffffffffffffffffffffffffffffffffffff16815260200190815260200160002080549050811061027b576040517f08c379a00000000000000000000000000000000000000000000000000000000081526004016102729061094b565b60405180910390fd5b60008060003373ffffffffffffffffffffffffffffffffffffffff1673ffffffffffffffffffffffffffffffffffffffff16815260200190815260200160002082815481106102cd576102cc61096b565b5b906000526020600020906004020190508060020160009054906101000a900460ff16158160020160006101000a81548160ff0219169083151502179055503373ffffffffffffffffffffffffffffffffffffffff167fab7f8b4ae853164b2eec49792f0a9b5ce9ee4568a8d67c9aa3b27e949f31d183838360020160009054906101000a900460ff166040516103649291906109b8565b60405180910390a25050565b600082829050116103b6576040517f08c379a00000000000000000000000000000000000000000000000000000000081526004016103ad90610a2d565b60405180910390fd5b60008060003373ffffffffffffffffffffffffffffffffffffffff1673ffffffffffffffffffffffffffffffffffffffff1681526020019081526020016000208054905090506000803373ffffffffffffffffffffffffffffffffffffffff1673ffffffffffffffffffffffffffffffffffffffff168152602001908152602001600020604051806080016040528083815260200185858080601f016020809104026020016040519081016040528093929190818152602001838380828437600081840152601f19601f8201169050808301925050505050505081526020016000151581526020014281525090806001815401808255809150506001900390600052602060002090600402016000909190919091506000820151816000015560208201518160010190816104ea9190610c28565b5060408201518160020160006101000a81548160ff0219169083151502179055506060820151816003015550503373ffffffffffffffffffffffffffffffffffffffff167fa211005f5319202ee7ab6815fc340564635fb1eee9bc5a55aa10048c5b471dc482858560405161056193929190610d36565b60405180910390a2505050565b600081519050919050565b600082825260208201905092915050565b6000819050602082019050919050565b6000819050919050565b6105ad8161059a565b82525050565b600081519050919050565b600082825260208201905092915050565b60005b838110156105ed5780820151818401526020810190506105d2565b60008484015250505050565b6000601f19601f8301169050919050565b6000610615826105b3565b61061f81856105be565b935061062f8185602086016105cf565b610638816105f9565b840191505092915050565b60008115159050919050565b61065881610643565b82525050565b600060808301600083015161067660008601826105a4565b506020830151848203602086015261068e828261060a565b91505060408301516106a3604086018261064f565b5060608301516106b660608601826105a4565b508091505092915050565b60006106cd838361065e565b905092915050565b6000602082019050919050565b60006106ed8261056e565b6106f78185610579565b9350836020820285016107098561058a565b8060005b85811015610745578484038952815161072685826106c1565b9450610731836106d5565b925060208a0199505060018101905061070d565b50829750879550505050505092915050565b6000602082019050818103600083015261077181846106e2565b905092915050565b600080fd5b600080fd5b61078c8161059a565b811461079757600080fd5b50565b6000813590506107a981610783565b92915050565b6000602082840312156107c5576107c4610779565b5b60006107d38482850161079a565b91505092915050565b600080fd5b600080fd5b600080fd5b60008083601f840112610801576108006107dc565b5b8235905067ffffffffffffffff81111561081e5761081d6107e1565b5b60208301915083600182028301111561083a576108396107e6565b5b9250929050565b6000806020838503121561085857610857610779565b5b600083013567ffffffffffffffff8111156108765761087561077e565b5b610882858286016107eb565b92509250509250929050565b7f4e487b7100000000000000000000000000000000000000000000000000000000600052602260045260246000fd5b600060028204905060018216806108d557607f821691505b6020821081036108e8576108e761088e565b5b50919050565b600082825260208201905092915050565b7f496e76616c696420494400000000000000000000000000000000000000000000600082015250565b6000610935600a836108ee565b9150610940826108ff565b602082019050919050565b6000602082019050818103600083015261096481610928565b9050919050565b7f4e487b7100000000000000000000000000000000000000000000000000000000600052603260045260246000fd5b6109a38161059a565b82525050565b6109b281610643565b82525050565b60006040820190506109cd600083018561099a565b6109da60208301846109a9565b9392505050565b7f456d707479207461736b00000000000000000000000000000000000000000000600082015250565b6000610a17600a836108ee565b9150610a22826109e1565b602082019050919050565b60006020820190508181036000830152610a4681610a0a565b9050919050565b7f4e487b7100000000000000000000000000000000000000000000000000000000600052604160045260246000fd5b60008190508160005260206000209050919050565b60006020601f8301049050919050565b600082821b905092915050565b600060088302610ade7fffffffffffffffffffffffffffffffffffffffffffffffffffffffffffffffff82610aa1565b610ae88683610aa1565b95508019841693508086168417925050509392505050565b6000819050919050565b6000610b25610b20610b1b8461059a565b610b00565b61059a565b9050919050565b6000819050919050565b610b3f83610b0a565b610b53610b4b82610b2c565b848454610aae565b825550505050565b600090565b610b68610b5b565b610b73818484610b36565b505050565b5b81811015610b9757610b8c600082610b60565b600181019050610b79565b5050565b601f821115610bdc57610bad81610a7c565b610bb684610a91565b81016020851015610bc5578190505b610bd9610bd185610a91565b830182610b78565b50505b505050565b600082821c905092915050565b6000610bff60001984600802610be1565b1980831691505092915050565b6000610c188383610bee565b9150826002028217905092915050565b610c31826105b3565b67ffffffffffffffff811115610c4a57610c49610a4d565b5b610c5482546108bd565b610c5f828285610b9b565b600060209050601f831160018114610c925760008415610c80578287015190505b610c8a8582610c0c565b865550610cf2565b601f198416610ca086610a7c565b60005b82811015610cc857848901518255600182019150602085019450602081019050610ca3565b86831015610ce55784890151610ce1601f891682610bee565b8355505b6001600288020188555050505b505050505050565b82818337600083830152505050565b6000610d1583856108ee565b9350610d22838584610cfa565b610d2b836105f9565b840190509392505050565b6000604082019050610d4b600083018661099a565b8181036020830152610d5e818486610d09565b905094935050505056fea264697066735822122039812de5c469096b9c89c709fed30e595e3c4a820b71cd713c54f30311e217ee64736f6c63430008140033",
  "linkReferences": {},
  "deployedLinkReferences": {}
}